{
  "_format": "hh-sol-artifact-1",
  "contractName": "FundMe",
  "sourceName": "contracts/FundMe.sol",
  "abi": [
    {
      "inputs": [],
      "stateMutability": "nonpayable",
      "type": "constructor"
    },
    {
      "inputs": [
        {
          "internalType": "address",
          "name": "",
          "type": "address"
        }
      ],
      "name": "addressToAmountFunded",
      "outputs": [
        {
          "internalType": "uint256",
          "name": "",
          "type": "uint256"
        }
      ],
      "stateMutability": "view",
      "type": "function"
    },
    {
      "inputs": [],
      "name": "fund",
      "outputs": [],
      "stateMutability": "payable",
      "type": "function"
    },
    {
      "inputs": [
        {
          "internalType": "uint256",
          "name": "",
          "type": "uint256"
        }
      ],
      "name": "funders",
      "outputs": [
        {
          "internalType": "address",
          "name": "",
          "type": "address"
        }
      ],
      "stateMutability": "view",
      "type": "function"
    },
    {
      "inputs": [
        {
          "internalType": "uint256",
          "name": "ethAmount",
          "type": "uint256"
        }
      ],
      "name": "getConversionRate",
      "outputs": [
        {
          "internalType": "uint256",
          "name": "",
          "type": "uint256"
        }
      ],
      "stateMutability": "view",
      "type": "function"
    },
    {
      "inputs": [],
      "name": "getPrice",
      "outputs": [
        {
          "internalType": "uint256",
          "name": "",
          "type": "uint256"
        }
      ],
      "stateMutability": "view",
      "type": "function"
    },
    {
      "inputs": [],
      "name": "getVersion",
      "outputs": [
        {
          "internalType": "uint256",
          "name": "",
          "type": "uint256"
        }
      ],
      "stateMutability": "view",
      "type": "function"
    },
    {
      "inputs": [],
      "name": "owner",
      "outputs": [
        {
          "internalType": "address",
          "name": "",
          "type": "address"
        }
      ],
      "stateMutability": "view",
      "type": "function"
    },
    {
      "inputs": [],
      "name": "withdraw",
      "outputs": [],
      "stateMutability": "payable",
      "type": "function"
    }
  ],
  "bytecode": "0x608060405234801561001057600080fd5b5033600260006101000a81548173ffffffffffffffffffffffffffffffffffffffff021916908373ffffffffffffffffffffffffffffffffffffffff160217905550610d48806100616000396000f3fe60806040526004361061007b5760003560e01c80638da5cb5b1161004e5780638da5cb5b1461012f57806398d5fdca1461015a578063b60d428814610185578063dc0d3dff1461018f5761007b565b80630d8e6e2c146100805780633ccfd60b146100ab5780633e47d6f3146100b55780636e5b6b28146100f2575b600080fd5b34801561008c57600080fd5b506100956101cc565b6040516100a29190610966565b60405180910390f35b6100b361026a565b005b3480156100c157600080fd5b506100dc60048036038101906100d791906107f8565b610465565b6040516100e99190610966565b60405180910390f35b3480156100fe57600080fd5b5061011960048036038101906101149190610821565b61047d565b6040516101269190610966565b60405180910390f35b34801561013b57600080fd5b506101446104b7565b604051610151919061092b565b60405180910390f35b34801561016657600080fd5b5061016f6104dd565b60405161017c9190610966565b60405180910390f35b61018d610595565b005b34801561019b57600080fd5b506101b660048036038101906101b19190610821565b6106a9565b6040516101c3919061092b565b60405180910390f35b600080738a753747a1fa494ec906ce90e9f37563a8af630e90508073ffffffffffffffffffffffffffffffffffffffff166354fd4d506040518163ffffffff1660e01b815260040160206040518083038186803b15801561022c57600080fd5b505afa158015610240573d6000803e3d6000fd5b505050506040513d601f19601f82011682018060405250810190610264919061084a565b91505090565b600260009054906101000a900473ffffffffffffffffffffffffffffffffffffffff1673ffffffffffffffffffffffffffffffffffffffff163373ffffffffffffffffffffffffffffffffffffffff16146102c457600080fd5b3373ffffffffffffffffffffffffffffffffffffffff166108fc479081150290604051600060405180830381858888f1935050505015801561030a573d6000803e3d6000fd5b5060005b6001805490508110156103dc57600060018281548110610357577f4e487b7100000000000000000000000000000000000000000000000000000000600052603260045260246000fd5b9060005260206000200160009054906101000a900473ffffffffffffffffffffffffffffffffffffffff16905060008060008373ffffffffffffffffffffffffffffffffffffffff1673ffffffffffffffffffffffffffffffffffffffff168152602001908152602001600020819055505080806103d490610be6565b91505061030e565b50600067ffffffffffffffff81111561041e577f4e487b7100000000000000000000000000000000000000000000000000000000600052604160045260246000fd5b60405190808252806020026020018201604052801561044c5781602001602082028036833780820191505090505b50600190805190602001906104629291906106e8565b50565b60006020528060005260406000206000915090505481565b6000806104886104dd565b90506000670de0b6b3a764000084836104a19190610b30565b6104ab91906109e8565b90508092505050919050565b600260009054906101000a900473ffffffffffffffffffffffffffffffffffffffff1681565b600080738a753747a1fa494ec906ce90e9f37563a8af630e905060008173ffffffffffffffffffffffffffffffffffffffff1663feaf968c6040518163ffffffff1660e01b815260040160a06040518083038186803b15801561053f57600080fd5b505afa158015610553573d6000803e3d6000fd5b505050506040513d601f19601f820116820180604052508101906105779190610873565b5050509150506402540be4008161058e9190610a19565b9250505090565b60006802b5e3af16b18800009050806105ad3461047d565b10156105ee576040517f08c379a00000000000000000000000000000000000000000000000000000000081526004016105e590610946565b60405180910390fd5b346000803373ffffffffffffffffffffffffffffffffffffffff1673ffffffffffffffffffffffffffffffffffffffff168152602001908152602001600020600082825461063c9190610992565b925050819055506001339080600181540180825580915050600190039060005260206000200160009091909190916101000a81548173ffffffffffffffffffffffffffffffffffffffff021916908373ffffffffffffffffffffffffffffffffffffffff16021790555050565b600181815481106106b957600080fd5b906000526020600020016000915054906101000a900473ffffffffffffffffffffffffffffffffffffffff1681565b828054828255906000526020600020908101928215610761579160200282015b828111156107605782518260006101000a81548173ffffffffffffffffffffffffffffffffffffffff021916908373ffffffffffffffffffffffffffffffffffffffff16021790555091602001919060010190610708565b5b50905061076e9190610772565b5090565b5b8082111561078b576000816000905550600101610773565b5090565b60008135905061079e81610cb6565b92915050565b6000815190506107b381610ccd565b92915050565b6000813590506107c881610ce4565b92915050565b6000815190506107dd81610ce4565b92915050565b6000815190506107f281610cfb565b92915050565b60006020828403121561080a57600080fd5b60006108188482850161078f565b91505092915050565b60006020828403121561083357600080fd5b6000610841848285016107b9565b91505092915050565b60006020828403121561085c57600080fd5b600061086a848285016107ce565b91505092915050565b600080600080600060a0868803121561088b57600080fd5b6000610899888289016107e3565b95505060206108aa888289016107a4565b94505060406108bb888289016107ce565b93505060606108cc888289016107ce565b92505060806108dd888289016107e3565b9150509295509295909350565b6108f381610b8a565b82525050565b6000610906601b83610981565b915061091182610c8d565b602082019050919050565b61092581610bc6565b82525050565b600060208201905061094060008301846108ea565b92915050565b6000602082019050818103600083015261095f816108f9565b9050919050565b600060208201905061097b600083018461091c565b92915050565b600082825260208201905092915050565b600061099d82610bc6565b91506109a883610bc6565b9250827fffffffffffffffffffffffffffffffffffffffffffffffffffffffffffffffff038211156109dd576109dc610c2f565b5b828201905092915050565b60006109f382610bc6565b91506109fe83610bc6565b925082610a0e57610a0d610c5e565b5b828204905092915050565b6000610a2482610b9c565b9150610a2f83610b9c565b9250827f7fffffffffffffffffffffffffffffffffffffffffffffffffffffffffffffff0482116000841360008413161615610a6e57610a6d610c2f565b5b817f80000000000000000000000000000000000000000000000000000000000000000583126000841260008413161615610aab57610aaa610c2f565b5b827f80000000000000000000000000000000000000000000000000000000000000000582126000841360008412161615610ae857610ae7610c2f565b5b827f7fffffffffffffffffffffffffffffffffffffffffffffffffffffffffffffff0582126000841260008412161615610b2557610b24610c2f565b5b828202905092915050565b6000610b3b82610bc6565b9150610b4683610bc6565b9250817fffffffffffffffffffffffffffffffffffffffffffffffffffffffffffffffff0483118215151615610b7f57610b7e610c2f565b5b828202905092915050565b6000610b9582610ba6565b9050919050565b6000819050919050565b600073ffffffffffffffffffffffffffffffffffffffff82169050919050565b6000819050919050565b600069ffffffffffffffffffff82169050919050565b6000610bf182610bc6565b91507fffffffffffffffffffffffffffffffffffffffffffffffffffffffffffffffff821415610c2457610c23610c2f565b5b600182019050919050565b7f4e487b7100000000000000000000000000000000000000000000000000000000600052601160045260246000fd5b7f4e487b7100000000000000000000000000000000000000000000000000000000600052601260045260246000fd5b7f596f75206e65656420746f207370656e64206d6f726520455448210000000000600082015250565b610cbf81610b8a565b8114610cca57600080fd5b50565b610cd681610b9c565b8114610ce157600080fd5b50565b610ced81610bc6565b8114610cf857600080fd5b50565b610d0481610bd0565b8114610d0f57600080fd5b5056fea264697066735822122020c66dac905100dd1d4482650481bd706b9672533390d6a6457e6e993119e73b64736f6c63430008040033",
  "linkReferences": {},
  "deployedLinkReferences": {}
}